{
  "abi": [
    {
      "inputs": [
        {
          "internalType": "address",
          "name": "router",
          "type": "address"
        },
        {
          "internalType": "bytes32",
          "name": "_donId",
          "type": "bytes32"
        }
      ],
      "stateMutability": "nonpayable",
      "type": "constructor"
    },
    {
      "inputs": [],
      "name": "EmptyArgs",
      "type": "error"
    },
    {
      "inputs": [],
      "name": "EmptySource",
      "type": "error"
    },
    {
      "inputs": [],
      "name": "NoInlineSecrets",
      "type": "error"
    },
    {
      "inputs": [],
      "name": "OnlyRouterCanFulfill",
      "type": "error"
    },
    {
      "anonymous": false,
      "inputs": [
        {
          "indexed": true,
          "internalType": "address",
          "name": "from",
          "type": "address"
        },
        {
          "indexed": true,
          "internalType": "address",
          "name": "to",
          "type": "address"
        }
      ],
      "name": "OwnershipTransferRequested",
      "type": "event"
    },
    {
      "anonymous": false,
      "inputs": [
        {
          "indexed": true,
          "internalType": "address",
          "name": "from",
          "type": "address"
        },
        {
          "indexed": true,
          "internalType": "address",
          "name": "to",
          "type": "address"
        }
      ],
      "name": "OwnershipTransferred",
      "type": "event"
    },
    {
      "anonymous": false,
      "inputs": [
        {
          "indexed": true,
          "internalType": "bytes32",
          "name": "id",
          "type": "bytes32"
        }
      ],
      "name": "RequestFulfilled",
      "type": "event"
    },
    {
      "anonymous": false,
      "inputs": [
        {
          "indexed": true,
          "internalType": "bytes32",
          "name": "id",
          "type": "bytes32"
        }
      ],
      "name": "RequestSent",
      "type": "event"
    },
    {
      "inputs": [],
      "name": "acceptOwnership",
      "outputs": [],
      "stateMutability": "nonpayable",
      "type": "function"
    },
    {
      "inputs": [],
      "name": "donId",
      "outputs": [
        {
          "internalType": "bytes32",
          "name": "",
          "type": "bytes32"
        }
      ],
      "stateMutability": "view",
      "type": "function"
    },
    {
      "inputs": [
        {
          "internalType": "bytes32",
          "name": "requestId",
          "type": "bytes32"
        },
        {
          "internalType": "bytes",
          "name": "response",
          "type": "bytes"
        },
        {
          "internalType": "bytes",
          "name": "err",
          "type": "bytes"
        }
      ],
      "name": "handleOracleFulfillment",
      "outputs": [],
      "stateMutability": "nonpayable",
      "type": "function"
    },
    {
      "inputs": [],
      "name": "owner",
      "outputs": [
        {
          "internalType": "address",
          "name": "",
          "type": "address"
        }
      ],
      "stateMutability": "view",
      "type": "function"
    },
    {
      "inputs": [],
      "name": "s_lastError",
      "outputs": [
        {
          "internalType": "bytes",
          "name": "",
          "type": "bytes"
        }
      ],
      "stateMutability": "view",
      "type": "function"
    },
    {
      "inputs": [],
      "name": "s_lastRequestId",
      "outputs": [
        {
          "internalType": "bytes32",
          "name": "",
          "type": "bytes32"
        }
      ],
      "stateMutability": "view",
      "type": "function"
    },
    {
      "inputs": [],
      "name": "s_lastResponse",
      "outputs": [
        {
          "internalType": "bytes",
          "name": "",
          "type": "bytes"
        }
      ],
      "stateMutability": "view",
      "type": "function"
    },
    {
      "inputs": [
        {
          "internalType": "string",
          "name": "source",
          "type": "string"
        },
        {
          "internalType": "enum FunctionsRequest.Location",
          "name": "secretsLocation",
          "type": "uint8"
        },
        {
          "internalType": "bytes",
          "name": "encryptedSecretsReference",
          "type": "bytes"
        },
        {
          "internalType": "string[]",
          "name": "args",
          "type": "string[]"
        },
        {
          "internalType": "bytes[]",
          "name": "bytesArgs",
          "type": "bytes[]"
        },
        {
          "internalType": "uint64",
          "name": "subscriptionId",
          "type": "uint64"
        },
        {
          "internalType": "uint32",
          "name": "callbackGasLimit",
          "type": "uint32"
        }
      ],
      "name": "sendRequest",
      "outputs": [],
      "stateMutability": "nonpayable",
      "type": "function"
    },
    {
      "inputs": [
        {
          "internalType": "bytes32",
          "name": "newDonId",
          "type": "bytes32"
        }
      ],
      "name": "setDonId",
      "outputs": [],
      "stateMutability": "nonpayable",
      "type": "function"
    },
    {
      "inputs": [
        {
          "internalType": "address",
          "name": "to",
          "type": "address"
        }
      ],
      "name": "transferOwnership",
      "outputs": [],
      "stateMutability": "nonpayable",
      "type": "function"
    }
  ],
  "bytecode": {
    "object": "0x60a06040523480156200001157600080fd5b50604051620018e3380380620018e3833981016040819052620000349162000183565b6001600160a01b0382166080523380600081620000985760405162461bcd60e51b815260206004820152601860248201527f43616e6e6f7420736574206f776e657220746f207a65726f000000000000000060448201526064015b60405180910390fd5b600080546001600160a01b0319166001600160a01b0384811691909117909155811615620000cb57620000cb81620000d8565b50505060025550620001bf565b336001600160a01b03821603620001325760405162461bcd60e51b815260206004820152601760248201527f43616e6e6f74207472616e7366657220746f2073656c6600000000000000000060448201526064016200008f565b600180546001600160a01b0319166001600160a01b0383811691821790925560008054604051929316917fed8889f560326eb138920d842192f0eb3dd22b4f139c87a2c57538e05bae12789190a350565b600080604083850312156200019757600080fd5b82516001600160a01b0381168114620001af57600080fd5b6020939093015192949293505050565b608051611701620001e26000396000818161016501526108bf01526117016000f3fe608060405234801561001057600080fd5b506004361061009e5760003560e01c806379ba50971161006657806379ba5097146101045780638da5cb5b1461010c5780638dbe7b9d14610127578063b1e217491461013e578063f2fde38b1461014757600080fd5b80630ca76175146100a3578063231c1619146100b85780633944ea3a146100cb5780634b0795a8146100e957806378ca5de7146100f1575b600080fd5b6100b66100b1366004610f9a565b61015a565b005b6100b66100c63660046110d1565b6101de565b6100d3610331565b6040516100e0919061120d565b60405180910390f35b6100d36103bf565b6100b66100ff366004611220565b6103cc565b6100b66103d9565b6000546040516001600160a01b0390911681526020016100e0565b61013060025481565b6040519081526020016100e0565b61013060035481565b6100b6610155366004611239565b610488565b336001600160a01b037f000000000000000000000000000000000000000000000000000000000000000016146101a35760405163c6829f8360e01b815260040160405180910390fd5b6101ae83838361049c565b60405183907f85e1543bf2f84fe80c6badbce3648c8539ad1df4d2b3d822938ca0538be727e690600090a2505050565b6101e66104bb565b6102276040805160e0810190915280600081526020016000815260200160008152602001606081526020016060815260200160608152602001606081525090565b61026e6000808e8e8080601f016020809104026020016040519081016040528093929190818152602001838380828437600092019190915250879594939250506105109050565b602081018a600281111561028457610284611262565b9081600281111561029757610297611262565b8152505088888080601f016020809104026020016040519081016040528093929190818152602001838380828437600092019190915250505050608082015285156102f0576102f06102e9878961129b565b829061058e565b831561030a5761030a6103038587611327565b82906105b8565b610320610316826105e2565b84846002546108ba565b600355505050505050505050505050565b6004805461033e9061138e565b80601f016020809104026020016040519081016040528092919081815260200182805461036a9061138e565b80156103b75780601f1061038c576101008083540402835291602001916103b7565b820191906000526020600020905b81548152906001019060200180831161039a57829003601f168201915b505050505081565b6005805461033e9061138e565b6103d46104bb565b600255565b6001546001600160a01b031633146104315760405162461bcd60e51b815260206004820152601660248201527526bab9ba10313290383937b837b9b2b21037bbb732b960511b60448201526064015b60405180910390fd5b60008054336001600160a01b0319808316821784556001805490911690556040516001600160a01b0390921692909183917f8be0079c531659141344cd1fd0a4f28419497f9722a3daafe3b4186f6b6457e091a350565b6104906104bb565b6104998161098c565b50565b60046104a88382611416565b5060056104b58282611416565b50505050565b6000546001600160a01b0316331461050e5760405162461bcd60e51b815260206004820152601660248201527527b7363c9031b0b63630b1363290313c9037bbb732b960511b6044820152606401610428565b565b8051600003610532576040516322ce3edd60e01b815260040160405180910390fd5b8383600281111561054557610545611262565b9081600281111561055857610558611262565b9052506040840182801561056e5761056e611262565b9081801561057e5761057e611262565b9052506060909301929092525050565b80516000036105b05760405163fe936cb760e01b815260040160405180910390fd5b60a090910152565b80516000036105da5760405163fe936cb760e01b815260040160405180910390fd5b60c090910152565b606060006105f1610100610a35565b905061062a6040518060400160405280600c81526020016b31b7b232a637b1b0ba34b7b760a11b81525082610a5690919063ffffffff16565b825161064890600281111561064157610641611262565b8290610a74565b6040805180820190915260088152676c616e677561676560c01b6020820152610672908290610a56565b604083015161068990801561064157610641611262565b604080518082019091526006815265736f7572636560d01b60208201526106b1908290610a56565b60608301516106c1908290610a56565b60a08301515115610755576040805180820190915260048152636172677360e01b60208201526106f2908290610a56565b6106fb81610ab1565b60005b8360a001515181101561074b5761073b8460a001518281518110610724576107246114d5565b602002602001015183610a5690919063ffffffff16565b61074481611501565b90506106fe565b5061075581610ad5565b608083015151156108195760008360200151600281111561077857610778611262565b036107965760405163a80d31f760e01b815260040160405180910390fd5b60408051808201909152600f81526e39b2b1b932ba39a637b1b0ba34b7b760891b60208201526107c7908290610a56565b6107e08360200151600281111561064157610641611262565b6040805180820190915260078152667365637265747360c81b6020820152610809908290610a56565b6080830151610819908290610af3565b60c083015151156108b25760408051808201909152600981526862797465734172677360b81b602082015261084f908290610a56565b61085881610ab1565b60005b8360c00151518110156108a8576108988460c001518281518110610881576108816114d5565b602002602001015183610af390919063ffffffff16565b6108a181611501565b905061085b565b506108b281610ad5565b515192915050565b6000807f00000000000000000000000000000000000000000000000000000000000000006001600160a01b031663461d27628688600188886040518663ffffffff1660e01b815260040161091295949392919061151a565b6020604051808303816000875af1158015610931573d6000803e3d6000fd5b505050506040513d601f19601f820116820180604052508101906109559190611563565b60405190915081907f1131472297a800fee664d1d89cfa8f7676ff07189ecc53f80bbb5f4969099db890600090a295945050505050565b336001600160a01b038216036109e45760405162461bcd60e51b815260206004820152601760248201527f43616e6e6f74207472616e7366657220746f2073656c660000000000000000006044820152606401610428565b600180546001600160a01b0319166001600160a01b0383811691821790925560008054604051929316917fed8889f560326eb138920d842192f0eb3dd22b4f139c87a2c57538e05bae12789190a350565b610a3d610ea8565b8051610a499083610b00565b5060006020820152919050565b610a638260038351610b7a565b8151610a6f9082610c93565b505050565b8151610a819060c2610cbb565b50610aad8282604051602001610a9991815260200190565b604051602081830303815290604052610af3565b5050565b610abc816004610d24565b600181602001818151610acf919061157c565b90525050565b610ae0816007610d24565b600181602001818151610acf919061158f565b610a638260028351610b7a565b604080518082019091526060815260006020820152610b206020836115a2565b15610b4857610b306020836115a2565b610b3b90602061158f565b610b45908361157c565b91505b602080840183905260405180855260008152908184010181811015610b6c57600080fd5b604052508290505b92915050565b6017816001600160401b031611610ba05782516104b59060e0600585901b168317610cbb565b60ff816001600160401b031611610be0578251610bc8906018611fe0600586901b1617610cbb565b5082516104b5906001600160401b0383166001610d3b565b61ffff816001600160401b031611610c21578251610c09906019611fe0600586901b1617610cbb565b5082516104b5906001600160401b0383166002610d3b565b63ffffffff816001600160401b031611610c64578251610c4c90601a611fe0600586901b1617610cbb565b5082516104b5906001600160401b0383166004610d3b565b8251610c7b90601b611fe0600586901b1617610cbb565b5082516104b5906001600160401b0383166008610d3b565b604080518082019091526060815260006020820152610cb483838451610dc0565b9392505050565b6040805180820190915260608152600060208201528251516000610ce082600161157c565b905084602001518210610d0157610d0185610cfc8360026115c4565b610e91565b8451602083820101858153508051821115610d1a578181525b5093949350505050565b8151610a6f90601f611fe0600585901b1617610cbb565b6040805180820190915260608152600060208201528351516000610d5f828561157c565b90508560200151811115610d7c57610d7c86610cfc8360026115c4565b60006001610d8c866101006116bf565b610d96919061158f565b90508651828101878319825116178152508051831115610db4578281525b50959695505050505050565b6040805180820190915260608152600060208201528251821115610de357600080fd5b8351516000610df2848361157c565b90508560200151811115610e0f57610e0f86610cfc8360026115c4565b855180518382016020019160009180851115610e29578482525b505050602086015b60208610610e695780518252610e4860208361157c565b9150610e5560208261157c565b9050610e6260208761158f565b9550610e31565b51815160001960208890036101000a0190811690199190911617905250849150509392505050565b8151610e9d8383610b00565b506104b58382610c93565b6040518060400160405280610ed0604051806040016040528060608152602001600081525090565b8152602001600081525090565b634e487b7160e01b600052604160045260246000fd5b604051601f8201601f191681016001600160401b0381118282101715610f1b57610f1b610edd565b604052919050565b60006001600160401b03831115610f3c57610f3c610edd565b610f4f601f8401601f1916602001610ef3565b9050828152838383011115610f6357600080fd5b828260208301376000602084830101529392505050565b600082601f830112610f8b57600080fd5b610cb483833560208501610f23565b600080600060608486031215610faf57600080fd5b8335925060208401356001600160401b0380821115610fcd57600080fd5b610fd987838801610f7a565b93506040860135915080821115610fef57600080fd5b50610ffc86828701610f7a565b9150509250925092565b60008083601f84011261101857600080fd5b5081356001600160401b0381111561102f57600080fd5b60208301915083602082850101111561104757600080fd5b9250929050565b80356003811061105d57600080fd5b919050565b60008083601f84011261107457600080fd5b5081356001600160401b0381111561108b57600080fd5b6020830191508360208260051b850101111561104757600080fd5b80356001600160401b038116811461105d57600080fd5b803563ffffffff8116811461105d57600080fd5b600080600080600080600080600080600060e08c8e0312156110f257600080fd5b6001600160401b03808d35111561110857600080fd5b6111158e8e358f01611006565b909c509a5061112660208e0161104e565b99508060408e0135111561113957600080fd5b6111498e60408f01358f01611006565b909950975060608d013581101561115f57600080fd5b61116f8e60608f01358f01611062565b909750955060808d013581101561118557600080fd5b506111968d60808e01358e01611062565b90945092506111a760a08d016110a6565b91506111b560c08d016110bd565b90509295989b509295989b9093969950565b6000815180845260005b818110156111ed576020818501810151868301820152016111d1565b506000602082860101526020601f19601f83011685010191505092915050565b602081526000610cb460208301846111c7565b60006020828403121561123257600080fd5b5035919050565b60006020828403121561124b57600080fd5b81356001600160a01b0381168114610cb457600080fd5b634e487b7160e01b600052602160045260246000fd5b60006001600160401b0382111561129157611291610edd565b5060051b60200190565b60006112ae6112a984611278565b610ef3565b80848252602080830192508560051b8501368111156112cc57600080fd5b855b8181101561131b5780356001600160401b038111156112ed5760008081fd5b870136601f8201126112ff5760008081fd5b61130d368235868401610f23565b8652509382019382016112ce565b50919695505050505050565b60006113356112a984611278565b80848252602080830192508560051b85013681111561135357600080fd5b855b8181101561131b5780356001600160401b038111156113745760008081fd5b61138036828a01610f7a565b865250938201938201611355565b600181811c908216806113a257607f821691505b6020821081036113c257634e487b7160e01b600052602260045260246000fd5b50919050565b601f821115610a6f57600081815260208120601f850160051c810160208610156113ef5750805b601f850160051c820191505b8181101561140e578281556001016113fb565b505050505050565b81516001600160401b0381111561142f5761142f610edd565b6114438161143d845461138e565b846113c8565b602080601f83116001811461147857600084156114605750858301515b600019600386901b1c1916600185901b17855561140e565b600085815260208120601f198616915b828110156114a757888601518255948401946001909101908401611488565b50858210156114c55787850151600019600388901b60f8161c191681555b5050505050600190811b01905550565b634e487b7160e01b600052603260045260246000fd5b634e487b7160e01b600052601160045260246000fd5b600060018201611513576115136114eb565b5060010190565b6001600160401b038616815260a06020820152600061153c60a08301876111c7565b61ffff9590951660408301525063ffffffff92909216606083015260809091015292915050565b60006020828403121561157557600080fd5b5051919050565b80820180821115610b7457610b746114eb565b81810381811115610b7457610b746114eb565b6000826115bf57634e487b7160e01b600052601260045260246000fd5b500690565b8082028115828204841417610b7457610b746114eb565b600181815b808511156116165781600019048211156115fc576115fc6114eb565b8085161561160957918102915b93841c93908002906115e0565b509250929050565b60008261162d57506001610b74565b8161163a57506000610b74565b8160018114611650576002811461165a57611676565b6001915050610b74565b60ff84111561166b5761166b6114eb565b50506001821b610b74565b5060208310610133831016604e8410600b8410161715611699575081810a610b74565b6116a383836115db565b80600019048211156116b7576116b76114eb565b029392505050565b6000610cb4838361161e56fea2646970667358221220cc66e854cf8e752a1d82f29f64d2b6faf21d5b095aebfab194927989f7d4528564736f6c63430008150033",
    "linkReferences": {}
  },
  "methodIdentifiers": {
    "acceptOwnership()": "79ba5097",
    "donId()": "8dbe7b9d",
    "handleOracleFulfillment(bytes32,bytes,bytes)": "0ca76175",
    "owner()": "8da5cb5b",
    "s_lastError()": "4b0795a8",
    "s_lastRequestId()": "b1e21749",
    "s_lastResponse()": "3944ea3a",
    "sendRequest(string,uint8,bytes,string[],bytes[],uint64,uint32)": "231c1619",
    "setDonId(bytes32)": "78ca5de7",
    "transferOwnership(address)": "f2fde38b"
  },
  "id": 0
}